:020000040000FA
:1000000080250010A9010000B1010000B30100002B
:10001000B5010000B7010000B901000000000000B8
:10002000000000000000000000000000BB01000014
:10003000BD01000000000000BF010000C101000080
:10004000C3010000C3010000D7260000C301000067
:10005000C3010000F5270000C3010000C301000038
:10006000C3010000C3010000C3010000C301000080
:10007000C3010000C3010000C3010000C301000070
:10008000C3010000C3010000C3010000C301000060
:10009000C3010000C3010000C3010000C301000050
:1000A000C3010000C3010000C3010000C301000040
:1000B000C3010000C3010000C3010000C301000030
:1000C000C3010000C3010000C301000000F002F8FA
:1000D00000F05AF80AA090E8000C82448344AAF188
:1000E0000107DA4501D100F04FF8AFF2090EBAE886
:1000F0000F0013F0010F18BFFB1A43F0010318475C
:1001000074310000943100000A444FF0000C10F8E4
:10011000013B13F0070408BF10F8014B1D1108BF85
:1001200010F8015B641E05D010F8016B641E01F825
:10013000016BF9D113F0080F1EBF10F8014BAD1C75
:100140000C1B09D16D1E58BF01F801CBFAD505E093
:1001500014F8016B01F8016B6D1EF9D59142D6D3ED
:10016000704700000023002400250026103A28BF15
:1001700078C1FBD8520728BF30C148BF0B60704719
:100180001FB51FBD10B510BD02F02AFC1146FFF7C8
:10019000F7FF02F071FA00F0AAF803B4FFF7F2FFDC
:1001A00003BC02F047FC00000948804709480047AB
:1001B000FEE7FEE7FEE7FEE7FEE7FEE7FEE7FEE717
:1001C000FEE7FEE704480549034A054B7047000077
:1001D00039040000CD0000008023001080250010AD
:1001E0008023001000BFFEE7F0B504460B4615461D
:1001F000194660003B4A102901D31039401C52F8BF
:1002000020604FEA410C032707FA0CF7BE4342F87F
:10021000206052F820604F0005FA07F73E4342F88D
:100220002060F0BDF0B504460B4615461946600047
:100230002C4A4032102901D31039401C52F820605A
:100240004FEA410C032707FA0CF7BE4342F820603F
:1002500052F820604F0005FA07F73E4342F820604D
:10026000F0BD30B50B461F496831012A07D151F85E
:10027000204001259D402C4341F8204006E051F8E4
:10028000204001259D40AC4341F8204030BD01286D
:1002900006D11449896A41F00801124A916206E0C8
:1002A00028B91049896A21F008010E4A9162704705
:1002B000012800D1052201B90A220A4BDA677047EA
:1002C00010B50446A27861782078FFF78DFFE278B8
:1002D00061782078FFF7A6FF227961782078FFF710
:1002E000C0FF10BD00C00240704770477047044611
:1002F000AFF300802046FFF750FF7047FFFFFFFF7E
:1003000094480068C0F30160032864D192480068F3
:1003100010F0030006D0012823D002283FD0032884
:1003200058D100E000BF8B480068C0F30E0000F118
:1003300001004FEA4000894900FB01F08849D1F8EB
:100340008810C1F3074101F10101B0FBF1F18548CB
:100350000068C0B200F10100B1FBF0F08249086012
:1003600038E07C480068C0F30E0000F101004FEA5D
:1003700040007E4900FB01F07949D1F88810C1F3B3
:10038000074101F10101B0FBF1F176480068C0B20C
:1003900000F10100B1FBF0F0734908601AE06D480C
:1003A0000068C0F30E0000F101004FEA00416C4804
:1003B000D0F88800C0F3074000F10100B1FBF0F174
:1003C00068480068C0B200F10100B1FBF0F0664976
:1003D000086000BF2FE06048006810F0030006D0FE
:1003E000012810D0022819D0032823D100E000BF33
:1003F0005C480068C0B200F101005849B1FBF0F060
:100400005949086016E057480068C0B200F1010081
:100410005649B1FBF0F0544908600BE051480068C0
:10042000C0B200F101004FF40041B1FBF0F04E49C1
:10043000086000BF00BF704720204D490860484851
:10044000D0F8A00110F0200F05D000BF4848006888
:1004500010F0400FFAD00320424908604FF000002E
:100460003F49C1F8A801434908604FF001003A49EB
:1004700008604148414908604FF0AA0040490860BF
:100480004FF0550008604FF001003E4908604FF002
:10049000AA003B4908604FF055003149C1F88C0073
:1004A00000BF2C48006810F0806FFAD00320354957
:1004B00008604FF0AA002A49C1F88C004FF055009F
:1004C0002F49086000BF2348006810F0407FFAD031
:1004D00023202D4908604FF0AA002149C1F8AC0043
:1004E0004FF05500294908604FF001002849086085
:1004F0004FF0AA00254908604FF055001849C1F88F
:10050000AC0000BF2348006810F4806FFAD00320CD
:100510001F4908604FF0AA001149C1F8AC004FF024
:1005200055001A49086000BF1A48006810F4407F5F
:10053000FAD01948194908604FF000000849C1F87D
:10054000C80143F23A0008604FF000001449086007
:100550007047000088C00F400CC10F4000093D00EB
:1005600000C00F4004C10F4000000010001BB70086
:10057000A0C10F40ACC10F406300050084C00F4014
:100580008CC00F4080C00F40A4C00F40ACC00F40D3
:10059000A0C00F40A8C00F40DE872806C4C00F408F
:1005A00008ED00E010B50A46202801D2034601E01C
:1005B000A0F120031946202814D2464B1B684FF0A7
:1005C000030404FA01F423EA0403434CC4F8A831F9
:1005D000404B1B6802FA01F443EA04033E4CC4F8A2
:1005E000A83113E03D4B1B684FF0030404FA01F4FB
:1005F00023EA0403384CC4F8AC31384B1B6802FAC8
:1006000001F443EA0403344CC4F8AC3110BD014694
:10061000202903D20A462F4B186803E0A1F12002DB
:100620002E4B186820FA02F303F00300704770B5F0
:1006300006462B4804683046FFF7E9FF054635B10A
:10064000012D06D0022D06D0032D08D105E004258A
:1006500005E0012503E0022501E0082500BF00BFF9
:10066000B4FBF5F4204670BD01290AD11D4A126879
:100670001D4B00EA030342EA0302174BC3F8C420F0
:100680000AE049B9174A1268174B23EA000302EA45
:100690000302114BC3F8C4207047002013490860BF
:1006A00030BF704704201249086008200F490860D5
:1006B00030BF704704200E49086009200B490860CC
:1006C00030BF704704200A490860032007490860CA
:1006D00030BF7047A8C10F4000C00F40ACC10F40F1
:1006E00000000010C4C00F40DEF7EFEFC0C00F40A5
:1006F00010ED00E02DE9F04F8BB004468946002054
:100700000990FE48844204D10620FFF790FF074677
:1007100016E0FB48844204D10820FFF788FF074613
:100720000EE0F848844204D13020FFF780FF0746EE
:1007300006E0F548844203D13220FFF778FF0746F0
:100740004FF0FF3B00200790069000252E464FF00B
:1007500001084DE00020089040E00898404400FB6C
:1007600009FC0020010741EA171138070022A0FB0D
:10077000083E01FB08E100FB02106246CDE90030B3
:100780000023DDE9000102F083F8CDE904010498BB
:100790000390DDF814A00398B0F1004F04D903983A
:1007A000404203900AF1010ABAF1000F02D0BAF5F3
:1007B000803F00D90FE0039858450BD2DDF80CB00C
:1007C0000026554608980790CDF81880BBF1000F19
:1007D00000D106E000BF0898401C089008984045EA
:1007E000BBD300BFBBF1000F00D104E008F101084A
:1007F000B8F10F0FAED900BF002185EA01007140AA
:10080000084302D10BB0BDE8F08F3809069900FB10
:1008100001FC0846079908440021A0FB052301FBC1
:10082000053100FB06100346CDE90020604600219B
:1008300002F02EF802900298814503D90298A9EBA4
:10084000000B02E00298A0EB090B64200BFB00F008
:10085000B0FBF9FBBBF1030F32D2A948844216D199
:10086000207B40F080002073280A40EA0660207157
:100870002570207B00F07F002073F021069801EAAC
:100880000010079901F00F010843A06216E0207BD9
:1008900040F080002073280A40EA0660207125702D
:1008A000207B00F07F002073F021069801EA001001
:1008B000079901F00F01084384F8280001200990EE
:1008C00009989FE770B504460D468C48844208D0CD
:1008D0008B48844205D08B48844202D08A488442A7
:1008E00000D103E0C92189A0FFF77CFC687940B101
:1008F0006879012805D06879022802D06879032830
:1009000000D103E0CA2181A0FFF76CFCA87910B1E7
:10091000A879012800D103E0CB217CA0FFF762FC7D
:10092000287958B12879012808D02879022805D0DB
:100930002879032802D02879042800D103E0CC21AB
:1009400072A0FFF74FFC6D48844203D101210820BB
:10095000FFF78AFE6A48844203D101211020FFF785
:1009600083FE6848844203D101210806FFF77CFE1C
:100970006548844203D101214806FFF775FE6048AF
:10098000844221D1072020720020207200E02678C6
:10099000207D10F0010FFAD1802084F8300000BFD4
:1009A000207D10F0200FFBD0002084F83000606024
:1009B00020732062207484F84C0084F8540084F87A
:1009C0005000267E267D18E007202072002020722D
:1009D00000E02678207D10F0010FFAD1802084F805
:1009E000300000BF207D10F0200FFBD0002084F8E5
:1009F0003000606020732062267D4348844202D12B
:100A0000002084F8240020462968FFF773FE3C4844
:100A1000844203D1207B00F0C00602E0207B00F07E
:100A2000C006687930B1012806D0022807D0032813
:100A300008D108E000BF09E046F0010606E046F0F4
:100A4000020603E000BF46F0030600BF00BF28799E
:100A5000C0B146F008062879012806D0022806D041
:100A6000032807D004280BD107E000BF09E046F0B7
:100A7000100606E046F0200603E046F0300600E0EF
:100A800000BF00BFA87928B1012802D146F00406B2
:100A900001E000BF00BF00BF1948844201D12673A6
:100AA00000E0267370BD70B504460D4613488442BD
:100AB00008D01348844205D01248844202D012481C
:100AC000844200D104E040F2EA3110A0FFF78AFB33
:100AD0000DB1012D00D104E040F2EB310BA0FFF786
:100AE00081FB012D2FD10648844225D194F8300096
:100AF00040F0800084F8300033E0000000C0004087
:100B0000000001400080094000C00940434D5349A6
:100B1000535F4472697665722D436F72655C6C69D0
:100B200062726172795C6C7063313778785F75617D
:100B300072742E630000000094F8300040F08000D2
:100B400084F830000DE0F948844205D194F8300073
:100B5000002084F8300004E094F83000002084F88D
:100B6000300070BD10B50446F148844208D0EF480B
:100B7000844205D0EF48844202D0EF48844200D13D
:100B800005E040F29511AFF27C00FFF72BFB00214E
:100B90002046FFF788FFE648844203D10021082061
:100BA000FFF762FDE148844203D100211020FFF7E6
:100BB0005BFDE048844204D100214FF08070FFF7D4
:100BC00053FDDD48844204D100214FF00070FFF74F
:100BD0004BFD10BD4FF416510160032141710021FE
:100BE00001718171704770B504460D46D04884424A
:100BF00008D0CE48844205D0CE48844202D0CE48A8
:100C0000844200D105E040F2D911AFF20010FFF7A5
:100C1000E9FAC648844201D1257000E0257070BD14
:100C200010B50446C248844208D0C048844205D06A
:100C3000C048844202D0C048844200D105E04FF44D
:100C4000F971AFF23810FFF7CDFAB848844201D1FC
:100C5000207810BD2078FCE72DE9FF5F80468A46AA
:100C6000934657465C460398012824D100251FE08F
:100C70004FF0FF3905E0B9F1000F00D106E0A9F10E
:100C8000010998F8140010F0200FF4D000BFB9F15A
:100C9000000F00D10EE0102607E017F8011B4046B8
:100CA000FFF7A1FF761E641E6D1C0EB1002CF4D15F
:100CB000002CDDD117E0002512E098F8140010F0A8
:100CC000200F00D10EE0102607E017F8011B404668
:100CD000FFF789FF641E761E6D1C0EB1002CF4D147
:100CE000002CEAD100BF284604B0BDE8F09F2DE9F2
:100CF000F05F0746894692469B464E465546BBF1F5
:100D0000010F1DD1002418E04FF0FF3805E0B8F1C5
:100D1000000F00D105E0A8F10108387D10F0010FA7
:100D2000F5D000BFB8F1000F00D108E03846FFF75A
:100D300077FF06F8010B6D1E641C002DE4D110E056
:100D400000240BE0387D10F0010F00D108E0384698
:100D5000FFF766FF06F8010B641C6D1E002DF1D134
:100D600000BF2046BDE8F09F10B50446704884429D
:100D700008D06E48844205D06E48844202D06E4846
:100D8000844200D105E04FF42171AFF28020FFF7DB
:100D900029FA6648844204D1207B40F04000207349
:100DA00003E0207B40F04000207310BD2DE9F041AE
:100DB00004460D4617465E48844208D05B4884428C
:100DC00005D05C48844202D05B48844200D105E0F3
:100DD00040F2AB21AFF2CC20FFF704FA0FB1012FA4
:100DE00000D105E04FF42B71AFF2E020FFF7FAF9E4
:100DF000072D15D2DFE805F00406080A0C0E1100D5
:100E000001260DE002260BE0042609E0082607E093
:100E1000802605E04FF4807602E04FF4007600BFB4
:100E200000BF4248844214D15DB1012D09D0022D8A
:100E300007D0052D05D0062D03D0032D01D0042D9C
:100E400000D116E04FF43271AFF24030FFF7CAF92B
:100E50000FE03DB1012D05D0022D03D0052D01D0AD
:100E6000062D00D105E04FF43371AFF26030FFF78B
:100E7000B9F9012F0AD12D48844203D1606830436B
:100E8000606013E06068304360600FE02748844290
:100E900006D1606840F28F31B1430840606005E0E0
:100EA000606840F20731B14308406060BDE8F081FE
:100EB00010B504461E48844208D01C48844205D020
:100EC0001C48844202D01C48844200D105E040F214
:100ED000FA21AFF2C830FFF785F91448844201D1F6
:100EE000007D10BD207DFCE710B50446104884420B
:100EF00008D00E48844205D00E48844202D00E48E5
:100F0000844200D105E040F21131AFF20040FFF71A
:100F100069F9A06840F2CF31084010BD0146087D54
:100F200010F0400F0AD00020704700000000014080
:100F300000C000400080094000C009400120F3E7E4
:100F400070B506460C460025F748864208D0F7489B
:100F5000864205D0F648864202D0F648864200D145
:100F600005E040F23731AFF25C40FFF73BF9E07843
:100F700040B1E078012805D0E078022802D0E0787E
:100F8000032800D105E04FF44E71AFF28040FFF727
:100F900029F9A07810B1A078012800D105E040F22D
:100FA0003931AFF29840FFF71DF9207810B1207861
:100FB000012800D105E040F23A31AFF2B040FFF72E
:100FC00011F9607810B16078012800D105E040F295
:100FD0003B31AFF2C840FFF705F945F00105E07875
:100FE00030B1012806D0022807D0032808D108E034
:100FF00000BF09E045F0400506E045F0800503E04C
:1010000000BF45F0C00500BF00BF6078012801D1D6
:1010100045F004052078012801D145F00205A078AB
:10102000012801D145F00805C048864203D105F0EA
:10103000CF00307202E005F0CF00307270BD0021A9
:101040008170C17001210170417070472DE9F0413C
:1010500004460F461546B448844208D0B34884423B
:1010600005D0B348844202D0B248844200D105E0A2
:1010700040F29231AFF26C50FFF7B4F80DB1012D90
:1010800000D105E040F29331AFF28050FFF7AAF8AB
:101090000026012D09D13878012801D146F0020639
:1010A0007878012801D146F00406A048844215D181
:1010B000012D10D1207B40F0800020730020207093
:1010C0002071207B20F0800020731020A06246F069
:1010D0000100206218E00020206215E0012D11D1EE
:1010E000207B40F080002073002020702071207B46
:1010F00020F080002073102084F8280046F00100C2
:10110000206201E000202062BDE8F08170B5044655
:101110000D468548844208D08448844205D08448DE
:10112000844202D08348844200D105E040F2D331AA
:10113000AFF22860FFF756F87C48844203D1206A5A
:101140002843206202E0206A2843206270BD70B507
:1011500004460D467748844200D105E040F2144130
:10116000AFF25860FFF73EF80DB1012D00D105E058
:1011700040F21541AFF26C60FFF734F8012D06D153
:1011800094F8240040F0020084F8240006E02DB911
:1011900094F8240000F03D0084F8240070BD70B580
:1011A00004460D466348844200D105E040F22C41DC
:1011B000AFF2A860FFF716F80DB1012D00D105E0E0
:1011C00040F22D41AFF2BC60FFF70CF8012D06D1C3
:1011D00094F8240040F0010084F8240005E094F81D
:1011E000240000F03E0084F8240070BD2DE9F04199
:1011F00005460C464F48854200D105E040F24D417E
:10120000AFF2F860FEF7EEFF6CB1012C0BD0022CB0
:1012100009D0032C07D0042C05D0052C03D0062CB4
:1012200001D0072C00D105E040F24E41AFF224700E
:10123000FEF7D8FF6007870E95F8240020F03806E7
:1012400047F00400064306F03F0085F82400BDE89F
:10125000F0812DE9F04104460D461646002733483B
:10126000844200D105E040F26D41AFF26070FEF7BC
:10127000B9FF0DB1012D00D105E040F26E41AFF292
:101280007470FEF7AFFF0EB1012E00D105E040F201
:101290006F41AFF28870FEF7A5FF15B1012D04D1A3
:1012A00001E0012702E0022700E000BF00BF012E9D
:1012B00003D1207C3843207404E0207CF321B9431F
:1012C00008402074BDE8F0812DE9F04104460D4648
:1012D00017461648844200D105E040F29541AFF22E
:1012E000D470FEF77FFF1DB1012D01D0022D00D17A
:1012F00005E040F29641AFF2EC70FEF773FF0FB1DC
:10130000012F00D105E040F29741AFF60000FEF753
:1013100069FF25B1012D04D0022D0FD10CE010265C
:101320000DE040260BE0000000C00040000001403E
:101330000080094000C00940802600E000BF00BFD7
:10134000012F03D1207C3043207404E0207CF32162
:10135000B14308402074BDE8F08110B504467848D8
:10136000844200D105E04FF49861AFF66000FEF7CB
:1013700039FF207E10BD70B506460C467048864287
:1013800000D105E040F2D441AFF68000FEF72AFF1D
:10139000A07810B1A078012800D105E040F2D54135
:1013A000AFF69800FEF71EFFE07810B1E078012854
:1013B00000D105E040F2D641AFF6B000FEF712FFD3
:1013C000E079FF2800DA05E040F2D741AFF6C4002B
:1013D000FEF708FF607910B16079012800D105E0BF
:1013E0004FF49B61AFF6DC00FEF7FCFE207910B1F4
:1013F0002079012800D105E040F2D941AFF6F40090
:10140000FEF7F0FEA079FF2800DA05E040F2DA41AD
:10141000AFF60810FEF7E6FE207810B1207801281C
:1014200000D105E040F2DB41AFF62010FEF7DAFE16
:10143000607810B16078012800D105E040F2DC410D
:10144000AFF63810FEF7CEFE0025E07801280ED169
:1014500045F010056079012801D145F0200520797B
:10146000012801D145F00805E07986F8540020787C
:10147000012801D145F00105A078012804D145F0EB
:101480000405A07986F85000607808B945F0020597
:1014900005F03F0086F84C00307B40F03800307398
:1014A00070BD012906D190F84C2022F0020280F88C
:1014B0004C2005E090F84C2042F0020280F84C20CD
:1014C00070472DE9F0470446894692461F469FB172
:1014D000257BA84628F0100884F80C80012352468A
:1014E00049462046FFF7B8FB064600BF207D10F0B6
:1014F000400FFBD025730BE001235246494620469E
:10150000FFF7AAFB064600BF207D10F0400FFBD07E
:101510003046BDE8F08713B5044601231A4601A9F9
:101520002046FFF7CEFF1CBD70B504460D4616469B
:101530000023324629462046FFF7C3FF70BD000056
:101540000000014001460020052912D2DFE801F029
:101550000305080B0E00F8480CE0F748203009E0BE
:10156000F548403006E0F448603003E0F24880304F
:1015700000E000BF00BF704701460020052912D2DD
:10158000DFE801F00305080B0E00EB480CE0EA4829
:10159000203009E0E848403006E0E748603003E0EA
:1015A000E548803000E000BF00BF704701460020E2
:1015B000052912D2DFE801F00305080B0E00DE4812
:1015C0000CE0DD48203009E0DB48403006E0DA4836
:1015D000603003E0D848803000E000BF00BF7047B3
:1015E0002DE9F04107460D4616463846FFF7AAFF9B
:1015F00004463CB11EB120682843206002E0206808
:10160000A8432060BDE8F08170B506460C46304620
:10161000FFF798FF054605B1AC6170BD70B5064691
:101620000C463046FFF78EFF054605B1EC6170BDF4
:1016300070B505462846FFF785FF04460CB1606982
:1016400070BD0020FCE718B912B9BC4B196014E05A
:10165000022803D112B9BA4B19600EE020B9012A51
:1016600002D1B84B196008E0022804D1012A02D146
:10167000B54B196001E000BFFEE7704703463BB978
:1016800032B9B248006820FA01F000F0010070475A
:10169000022B07D132B9AE48006820FA01F000F001
:1016A0000100F4E743B9012A06D1AA48006820FAEC
:1016B00001F000F00100EAE7022B08D1012A06D16F
:1016C000A548006820FA01F000F00100DFE700BF44
:1016D000FEE710B9A14A116006E0022802D1A04A33
:1016E000116001E000BFFEE7704770B504460D468B
:1016F0001646324629462046FFF772FF70BD70B588
:1017000004460D4629462046FFF77EFF70BD70B5A2
:1017100004460D4629462046FFF780FF70BD10B5F0
:1017200004462046FFF784FF10BD70B504460D4601
:101730001646324629462046FFF785FF70BD70B534
:1017400004460D461646324629462046FFF796FFC8
:1017500070BD10B503460C4621461846FFF7B9FF89
:1017600010BD2DE9F04107460D4616463846FFF7F5
:10177000E9FE04463CB11EB120692843206102E025
:101780002069A8432061BDE8F0812DE9F041804641
:101790000E4615461F464046FFF7EEFE04468CB146
:1017A00047B11EB16088284360800BE02088284341
:1017B000208007E01EB16088A843608002E0208896
:1017C000A8432080BDE8F0812DE9F04180460E4617
:1017D00015461F464046FFF7CFFE04468CB147B181
:1017E0001EB1608A284360820BE0208A2843208251
:1017F00007E01EB1608AA843608202E0208AA84305
:101800002082BDE8F0812DE9F04107460E461446DE
:101810003846FFF7B1FE05461DB10EB16C8300E0FE
:101820002C83BDE8F0812DE9F04107460E461446B1
:101830003846FFF7A1FE05461DB10EB1EC8300E06E
:10184000AC83BDE8F08170B506460D463046FFF723
:1018500093FE044624B10DB1E08A70BDA08AFCE776
:101860000020FAE72DE9F04180460C4616461F4657
:101870004046FFF79BFE05465DB12FB1032C08DC07
:10188000285D3043285504E0032C02DC285DB0437A
:101890002855BDE8F0812DE9F04180460C461646FA
:1018A0001F464046FFF782FE05469DB14FB1032C0F
:1018B00010DC05F11000005D304305F11001085502
:1018C00008E0032C06DC05F11000005DB04305F1D3
:1018D00010010855BDE8F0812DE9F04107460C469E
:1018E00015463846FFF762FE064626B1032C02DC99
:1018F00006F118000555BDE8F0812DE9F0410746D5
:101900000C4615463846FFF751FE064626B1032C15
:1019100002DC06F11C000555BDE8F08170B50646F5
:101920000C463046FFF742FE0546DDB1032C19DCBC
:1019300005F11400005D70BD00C0092090800240D8
:10194000B080024094800240B48002408480024013
:10195000A480024088800240A88002408C8002401F
:10196000AC8002400020E6E770B5054635B1012D98
:1019700009D0022D0CD0032D14D10EE00220FEF769
:1019800056FE04460EE00420FEF751FE044609E030
:101990002C20FEF74CFE044604E02E20FEF747FE06
:1019A000044600BF00BF204670BD2DE9F0478146C8
:1019B0000C464846FFF7D8FF002605460023294677
:1019C000A1FB047C06FB04C205FB0321FB4A38464D
:1019D00000F05EFF05462846BDE8F08701464FF05F
:1019E000FF30B1F1402F01D100200DE0F44A9142C7
:1019F00001D1012008E0F34A914201D1022003E025
:101A0000F14A914200D10320704770B505460C465B
:101A1000B5F1402F08D0EA48854205D0E948854213
:101A200002D0E948854200D103E0A621E7A0FEF7F5
:101A3000D9FB4CB1012C07D0022C05D0032C03D0CC
:101A4000042C01D0052C00D103E0A721DFA0FEF774
:101A5000C9FB28680121A1400840C6B20EB101208F
:101A600070BD0020FCE770B505460C46B5F1402F6F
:101A700008D0D348854205D0D248854202D0D2480A
:101A8000854200D103E0C421D0A0FEF7ABFB4CB1EE
:101A9000012C07D0022C05D0032C03D0042C01D03C
:101AA000052C00D103E0C521C8A0FEF79BFB2868E8
:101AB000211D01228A401040C6B20EB1012070BD26
:101AC0000020FCE770B505460C46B5F1402F08D064
:101AD000BB48854205D0BB48854202D0BA48854202
:101AE00000D103E0DD21B9A0FEF77CFB4CB1012C55
:101AF00007D0022C05D0032C03D0042C01D0052CD8
:101B000000D103E0DE21B1A0FEF76CFB0120A04074
:101B1000286070BD70B505460C46B5F1402F08D061
:101B2000A748854205D0A748854202D0A6488542ED
:101B300000D103E0F421A5A0FEF754FB4CB1012C29
:101B400007D0022C05D0032C03D0042C01D0052C87
:101B500000D103E0F5219DA0FEF744FB201D0121EB
:101B60008140296070BD20B90A460123137053607B
:101B700003E00A460023537000BF70472DE9F04789
:101B800004460D461646B4F1402F08D08C488442D6
:101B900005D08C48844202D08B48844200D104E0B6
:101BA00040F22B1189A0FEF71DFB1DB1012D01D0C4
:101BB00000D000D104E04FF4967184A0FEF712FB30
:101BC000B4F1402F08D101210220FEF74DFD002184
:101BD0000220FEF7E7FC22E07948844208D1012187
:101BE0000420FEF741FD00210420FEF7DBFC16E097
:101BF0007448844208D101218805FEF735FD002193
:101C00002C20FEF7CFFC0AE06F48844207D1012167
:101C1000C805FEF729FD00212E20FEF7C3FCA06AAF
:101C200020F00300A062A06AA0620020A0602061F2
:101C3000E060606840F002006060606820F00200D0
:101C4000606085B93746387818B97868401EE0601A
:101C500017E02046FFF7C2FE81467968FFF7A5FE30
:101C6000401EE0600DE0B046A06A20F00C00A062CB
:101C7000464698F80100012803D1A06A40F004000C
:101C8000A0624FF0FF302060BDE8F08710B5044639
:101C9000B4F1402F08D04A48844205D049488442D4
:101CA00002D04948844200D104E040F2791147A0B3
:101CB000FEF798FA00206060B4F1402F04D10021B3
:101CC0000220FEF7D1FC18E03D48844204D10021F7
:101CD0000420FEF7C9FC10E03A48844205D10021F7
:101CE0004FF48000FEF7C0FC07E03748844204D17F
:101CF00000214FF48000FEF7B7FC10BD70B504461C
:101D00000D46B4F1402F08D02D48844205D02D480F
:101D1000844202D02C48844200D104E04FF4CD71BB
:101D20002AA0FEF75FFA012D04D1606840F001009F
:101D3000606003E0606820F00100606070BD10B575
:101D40000446B4F1402F08D01D48844205D01D48F8
:101D5000844202D01C48844200D104E04FF4D9717F
:101D60001AA0FEF73FFA606840F002006060606809
:101D700020F00200606010BD70B504460D46B4F15D
:101D8000402F08D00E48844205D00E48844202D02D
:101D90000D48844200D104E040F2D1110BA0FEF7BF
:101DA00021FA287940B12879012805D0287902281C
:101DB00002D0287903281FD124E0000040420F0000
:101DC000008000400000094000400940434D534955
:101DD000535F4472697665722D436F72655C6C69FE
:101DE00062726172795C6C7063313778785F7469A4
:101DF0006D65722E630000004FF4E971AFF234009C
:101E0000FEF7F0F9287830B1012807D0022808D071
:101E100003280CD108E0A868A0610AE0A868E06186
:101E200007E0A868206204E0A868606201E000BFE3
:101E3000FEE700BF6069297801EB4102072191406C
:101E400088436061687838B16069297801EB4102A4
:101E50000121914008436061E87840B160692978C8
:101E600001EB4101491C01228A4010436061A878BE
:101E700040B16069297801EB4101891C01228A4047
:101E800010436061E06B2978042202EB41020321D8
:101E900091408843E063287900F003002978042208
:101EA00002EB41018840E16B0843E06370BD70B50F
:101EB00004460E461546B4F1402F08D043488442EC
:101EC00005D04348844202D04248844200D105E014
:101ED00040F20721AFF20C10FEF784F936B1012E63
:101EE00006D0022E06D0032E08D105E0A56107E03A
:101EF000E56105E0256203E0656201E000BFFEE701
:101F000000BF70BD70B504460D46B4F1402F08D037
:101F10002E48844205D02E48844202D02D48844267
:101F200000D105E040F22D21AFF26010FEF75AF922
:101F3000A06A297801EB4102072191408843A06201
:101F4000687838B1A06A297801EB410201219140FB
:101F50000843A062A87840B1A06A297801EB41014A
:101F6000491C01228A401043A062E87840B1A06A6F
:101F7000297801EB4101891C01228A401043A062AB
:101F800070BD70B504460D46B4F1402F08D00F481F
:101F9000844205D00E48844202D00E48844200D1CB
:101FA00005E04FF41271AFF2DC10FEF71BF90DB132
:101FB000012D00D105E040F24921AFF2F010FEF70B
:101FC00011F90DB9E06A70BD206BFCE7008000409C
:101FD00000000940004009402DE9F04104460D464B
:101FE000B848844200D103E04221B7A0FEF7FAF8D6
:101FF0001DB1BF48854200D803E04321B2A0FEF7DF
:10200000F1F801210803FEF72FFB002020604FF4B8
:1020100000181820FEF70BFB064605EB851707EBAB
:1020200046007900B0FBF1F0471E48EA0728C4F8E3
:102030000080BDE8F08110B50446A248844200D17A
:1020400003E06321A0A0FEF7CDF8206820F4001083
:10205000206000214FF48050FEF706FB10BD0146C2
:1020600001B100BF00BF9748103050F82120C2F3E3
:102070000B10704770B505460C469248854200D15A
:1020800003E08C2190A0FEF7ADF86CB1012C0BD0D1
:10209000022C09D0032C07D0042C05D0052C03D02A
:1020A000062C01D0072C00D103E08D2186A0FEF77D
:1020B00099F8286820F0E0602860286840EA046009
:1020C000286070BD70B504460D467E48844200D13C
:1020D00003E09E217CA0FEF785F8206820F4803084
:1020E00020601DB1206840F48030206070BD70B564
:1020F00004460D467348844200D103E0B02172A02B
:10210000FEF770F8206820F4001020601DB12068F0
:1021100040F40010206070BD70B504460D4669485B
:10212000844200D103E0C22167A0FEF75BF80DB145
:10213000012D00D103E0C32163A0FEF753F820680E
:1021400020F0006020601DB1206840F00060206039
:1021500070BD70B505460C4616465A48854200D1FA
:1021600003E0DB2158A0FEF73DF87CB1012C0DD037
:10217000022C0BD0032C09D0042C07D0052C05D041
:10218000062C03D0072C01D0082C00D103E0DC2161
:102190004DA0FEF727F8E8680121A1408843E860D8
:1021A00026B1E9680120A0400143E96070BD70B527
:1021B00004460D4616464348844200D103E0EE2112
:1021C00041A0FEF70FF805B100BF00BF012E05D1F9
:1021D00020680121A9400843206004E02068012113
:1021E000A9408843206070BD70B504460D4635484F
:1021F000844200D104E04FF4817133A0FDF7F2FF77
:1022000005B100BF00BF04F1100050F82560C6F30F
:102210000B1070BD2DE9F04107460E4614462948C3
:10222000874200D104E04FF48B7127A0FDF7DAFF5D
:1022300006B100BF00BF0CB1012C00D104E04FF487
:102240008C7121A0FDF7CEFF07F1100050F8265049
:1022500014B105F0004501E005F0804515B10120FD
:10226000BDE8F0810020FBE710B504461548844224
:1022700000D104E040F22F1113A0FDF7B3FF606816
:1022800010BD70B506460C460E48864200D104E0EB
:102290004FF4A0710CA0FDF7A5FF0CB1012C00D1EB
:1022A00004E040F2411108A0FDF79CFF756814B1ED
:1022B00005F0004501E005F080450DB1012070BD3D
:1022C0000020FCE700400340434D5349535F4472F4
:1022D000697665722D436F72655C6C6962726172BA
:1022E000795C6C7063313778785F6164632E63006A
:1022F000400D030010B5002807DACA06140EFE4A86
:1023000000F00F031B1FD45403E0CA06130EFB4A50
:10231000135410BD10B5FA480078C0EB0010F94A0C
:1023200002EB4001F84800F02AFB28B34FF480216B
:102330000120FFF769F90120F44908700020F249F3
:1023400081F8A000F249086009E03020EE49F04A27
:1023500012688854EE480068401CED490860EA485D
:1023600000F01FFBEA4909688842EED8E44800788B
:10237000401CE349087004E04FF480210120FFF77E
:102380004DF9E2480078012849D1DD480078062857
:1023900003DD0520DA49087041E0D94800780628B5
:1023A0002CD1DC480078DB490978C1EB0121DA4AFD
:1023B00002EB410181F8F4015C20D6490978C1EBB8
:1023C000012102EB410181F8F5013020D149097862
:1023D000C1EB012102EB410181F8F601CD48007803
:1023E000C0EB002002EB400101234FF4FF72CB4809
:1023F000FEF732FC0020C549087010E0C0480078A4
:1024000000EBC00202EB0010C54A02EB8001012381
:102410006422C248FEF720FC0020BC49087010BDB1
:1024200010B5B7480078C0EB0010B64A02EB400187
:10243000B54800F0A4FA60B34FF480210120FFF703
:10244000E3F80120B14908700020AF4981F8A000ED
:10245000AF49086009E03021AB48AD4A12688154A9
:10246000AB480068401CAA490860A74800F099FAE8
:10247000A74909688842EED8A1480078401CA049C5
:10248000087008460078062808D10120A549087080
:1024900010BD4FF480210120FFF7C0F89B48007861
:1024A000012810D19648007800EBC00202EB001022
:1024B0009B4A02EB8001012364229848FEF7CCFB83
:1024C00000209249087000209649087000BFDFE79D
:1024D00010B586B0044601208DF81000059000204C
:1024E0008DF8040001208DF805008DF8070000200C
:1024F0008DF806008DF80800039404AA00218A488C
:10250000FFF73CFB01A98848FFF736FC0A210220AF
:10251000FFF7F0FE022000F099F901218248FFF751
:10252000EDFB06B010BD10B5012080498870002079
:102530000871C87019204870002008700846FDF71F
:10254000BFFE01207949887000200871C8701820EA
:102550004870002008700846FDF7B2FE012073495C
:10256000887000200871C87017204870002008701B
:102570000846FDF7A5FE6E496E48FFF72DFD0122C6
:1025800002216C48FFF713FE012211466948FFF74C
:102590000EFE012200216748FFF709FE0121654870
:1025A000FFF790FD10BD10B5012060498870002034
:1025B0000871C87002204870002008700846FDF7B6
:1025C0007FFE0320594948700846FDF779FE022036
:1025D0005649887000200871C87048700870084615
:1025E000FDF76EFE0120514948700846FDF768FE70
:1025F0004FF4E13050490860002008710320487111
:10260000002088714548FEF75DF94B494B48FEF7BD
:1026100059F901204A490870487000208870C87034
:102620003E48FEF78DFC46494448FEF789FC0122EE
:1026300000213A48FEF7BAFB012200213F48FEF78D
:10264000B5FB012031490870052000F0FFF8092191
:102650000520FFF74FFE082001218140394A430938
:1026600042F8231000BF01212C48FEF71CFA01217B
:102670003248FEF718FA10BDFFF795FFFFF753FF3A
:1026800001224FF440211046FEF7AAFF4FF44021EB
:102690000120FEF7C3FF4FF4C870FFF719FF11E0E8
:1026A0002048007828B900BFFFF7BAFE0028FBD009
:1026B00008E0254800680C2804D30020224908605F
:1026C000FFF728FEECE710B502211A48FFF78CFD52
:1026D0000446204610BD10B500211348FFF795F9B8
:1026E00001287DD118480068401C17490860FFF791
:1026F000EAFF164908802BE018ED00E000E400E056
:1027000004000010402A0000D02100100C0000102E
:10271000080000100E000010E40D001000C0004082
:102720001C0000100D00001000800040D80D0010AB
:10273000400D030000400340D00D001000C00940D0
:10274000DD0D001080E100E0180000101000001006
:102750000846007843490978C1EB0121424A02EB5F
:102760004101424A128888544148008801123D487C
:102770000078C0EB00203C4A02EB40023B48008856
:10278000401C115439480088801C3849088008468C
:102790000088B0F5F97F0ADD002008803148007814
:1027A000344908702F480078401C2E4908702D4885
:1027B0000078092819DD00202A4908702E48007881
:1027C000401C2D49087008460078C007010B012005
:1027D000FEF71AFF2848007800F00100C04300E02F
:1027E00003E0C1040120FEF719FF00212348FFF791
:1027F00069F910BD10B52248806810F0010F14D19E
:102800001F4800781F4991F8A0101E4A50541046E6
:1028100090F8A000115C1C48FEF7E5F9194890F803
:10282000A000401C174981F8A00010BD10B501217F
:102830001648FFF7D9FC0446204610BD10B500210C
:102840001248FFF7D1FC0446204610BD00F01F02DD
:102850000121914042094FF0E02303EB8202C2F8CC
:102860000011704712000010E40D00101400001059
:10287000100000100E000010CC0D00100080004071
:1028800000C00040D021001000C0094000400340BB
:1028900053EA020C00F069802DE9F04B4FF000067E
:1028A000002B1FBFB3FA83F503FA05F424FA05F6EB
:1028B0005E4012BF1643B2FA82F502FA05F4C5F182
:1028C00020051EBF22FA05FC44EA0C04203556EA16
:1028D000044C4FEA144418BF641C4FF000084FF03A
:1028E0000009904271EB030C39D3002919BFB1FAEA
:1028F00081F701FA07F6B0FA80F700FA07F6C7F198
:1029000020071EBF20FA07FC46EA0C062037B6FB5C
:10291000F4FCA7EB0507103F07F01F0BCBF12006D7
:102920000CFA0BFB2CFA06F644BFB3460026202F08
:10293000A4BF5E464FF0000B5BEA060C08BF4FF0E9
:10294000010B19EB0B09ABFB027C48EB0608C01B23
:1029500006FB02CC0BFB03CC71EB0C01C1E70B4671
:10296000024641464846BDE8F08B13B54FF00000E3
:102970004FF00001AFF30080BDE81C40704730B558
:1029800005460B462A4613F8014B12F8010B08B115
:10299000A042F8D01CB1002802D06D1CF1E72846F7
:1029A00030BD10B5431C02E010F8011B71B1810766
:1029B000FAD14FF0013202C88C1A8C4314EAC211CA
:1029C000F9D0C01A0A0603D0C01E10BDC01A10BD2F
:1029D0000A0401D0801E10BD0902FCD0401E10BDAB
:1029E000754600F023F8AE4605006946534620F0D0
:1029F0000700854618B020B5FDF7E4FBBDE8204090
:102A00004FF000064FF000074FF000084FF0000BAA
:102A100021F00701AC46ACE8C009ACE8C009ACE85D
:102A2000C009ACE8C0098D467047000000487047F7
:102A30001C23001001491820ABBEFEE7260002004F
:102A40004F4B0000000000000000000000000000EC
:102A500000000000000000000000000000004F4BDC
:102A60000000000000000000000000000000000066
:102A70000000000000000000000000004F4B0000BC
:102A80000000000000000000000000000000000046
:102A9000000000000000000000004F4B000000009C
:102AA0000000000000000000000000000000000026
:102AB00000000000000000004F4B0000000000007C
:102AC0000000000000000000000000000000000006
:102AD0000000000000004F4B0D0A3E000000000007
:102AE00000000000000000000000000000000000E6
:102AF0000000000053454E44204F4B0000000000F2
:102B000000000000000000000000000000000000C5
:102B100000000000000000000000000000000000B5
:102B200000000000000000000000000000000000A5
:102B30000000000000000000000000000000000095
:102E5000000000000000000000004552524F5200E8
:102E60000000000000000000000000000000000062
:102E700000000000000000004552524F52000000C8
:102E80000000000000000000000000000000000042
:102E90000000000000004552524F520000000000A8
:102EA0000000000000000000000000000000000022
:102EB000000000004552524F520000000000000088
:102EC0000000000000000000000000000000000002
:102ED00000004552524F5200000000000000000068
:102EE00000000000000000000000000000000000E2
:102EF0004552524F52000000000000000000000048
:102F0000000000000000000000000000000045522A
:102F1000524F5200000000000000000000000000BE
:102F200000000000000000000000000000000000A1
:102F30000000000000000000000000000000000091
:102F40000000000000000000000000000000000081
:102F50000000000000000000000000000000000071
:10327000000000009432000000000010E40D000087
:10328000080100002C330000E40D00109C17000022
:10329000640100001184E1F505F201056041540D5F
:1032A0000A080C5741542B43574D4F44453D316D4F
:1032B000296408085B49504D55583D306418115732
:1032C0004A41503D22416D666F746572222C220680
:1032D000080B41617069636F30303938227A49C810
:1032E000180B53544152543D225443506318113328
:1032F000312E3138342E3133322E3336222C3701F1
:103300000B3A2C36E6596408093A454E4445583D77
:1033100035314B01FF01FF01FF01FF01FF01FF01FB
:0C332000FF01FF01FF01FF01FF0194000D
:04000005000000CD2A
:00000001FF
